:060000000A128A11FC2F18
:100EB40083120313080801395F2F080083120313F8
:100EC400881308138816881108150800831603135D
:100ED4008813081388120811881108148312031345
:100EE4008813081388128811081108000B30F200C7
:100EF4002630F1005D30F000F00B7E2FF10B7E2FD9
:100F0400F20B7E2F852F8312031388130817881280
:100F14008811081508001030F2003930F1000D3046
:100F2400F000F00B932FF10B932FF20B932F9A2FCA
:100F340083120313881708138812881508111A30AE
:100F4400F2005E30F1006E30F000F00BA72FF10BD1
:100F5400A72FF20BA72F000008000A128A11682796
:100F64000A128A110A128A1160270A128A110A12B5
:100F74008A11D3270A128A11003A0319C22FC32FE8
:100F8400B42F0A128A1178270A128A110A128A11B6
:100F94008D270A128A11B42FB42FB42F0A128A1182
:100FA40000281030F1002730F200F22FC730F00093
:100FB400DB2FF00BDA2FDE2FDF2F0130F1020030B0
:100FC400031CF203F2020A128A115A270A128A1126
:100FD400003A0319EE2FEF2FF22FF92FF92FF22FEA
:100FE40071087204031DF72FF82FD82FF92F013041
:0C0FF400FB2F080083010A128A11AF2FA6
:04400E00D4E0FFFFFC
:00000001FF
